:020000021000EC
:10C0000000800020DDE1010019E201001BE20100D7
:10C010000000000000000000000000000000000020
:10C020000000000000000000000000001DE2010010
:10C0300000000000000000001FE2010021E20100FA
:10C0400023E2010023E20100E9ED010023E2010007
:10C0500023E201000000000023E2010023E20100CE
:10C0600023E2010023E2010051EC010023E2010080
:10C0700023E2010023E2010023E2010023E20100A8
:10C0800023E20100FDEF010023E2010023E20100B1
:10C0900023E2010023E2010023E2010023E2010088
:10C0A00023E2010023E20100000000000000000084
:10C0B0000000000000000000000000000000000080
:10C0C00010B5064C2378002B07D1054B002B02D06E
:10C0D000044800E000BF0123237010BD9828002011
:10C0E000000000001811020008B5084B002B03D017
:10C0F0000748084900E000BF07480368002B03D049
:10C10000064B002B00D0984708BDC0460000000039
:10C11000181102009C280020982800200000000030
:10C12000164B002B00D1144B9D46402292029A1AC6
:10C13000924600218B460F461348144A121A03F008
:10C1400026F90F4B002B00D098470E4B002B00D048
:10C1500098470020002104000D000D48002802D05F
:10C160000C4800E000BF03F0CFF82000290002F0E7
:10C17000C9FB03F0B3F8C0460000080000800020AF
:10C18000000000000000000098280020242B002060
:10C19000000000000000000010B5034B041C036009
:10C1A00000F00EFA201C10BDE809020010B5041CB6
:10C1B000FFF7F2FF201C03F07BF8201C10BD0000ED
:10C1C00010B5034B041C0360FFF7E6FF201C10BDF5
:10C1D0008007020010B5041CFFF7F2FF201C03F0DB
:10C1E00067F8201C10BD000010B5034B041C036051
:10C1F000FFF7E6FF201C10BDB007020010B5041CBD
:10C20000FFF7F2FF201C03F053F8201C10BD0000C4
:10C2100008B50248024902F0D0F808BDDC2A002027
:10C22000D807020008B50248024902F0C6F808BD66
:10C23000DC2A0020F907020038B5074C051C074925
:10C24000201C02F088F8281C00F072F9011C201C48
:10C2500002F0C7F838BDC046DC2A00201C080200E6
:10C2600038B5074C051C0749201C02F074F8281C3F
:10C2700000F05EF9011C201C02F0B3F838BDC04686
:10C28000DC2A0020370802009621F8B526488901EB
:10C2900002F024FB0B20002102F06CFA0C2000219C
:10C2A00002F068FA214C2249201C00F06FFB214D5E
:10C2B000281C00F006F9011C201C00F064FB201C67
:10C2C000291C00F0B8FC1C4E201C311D00F0B3FCF2
:10C2D0001A4D201C291D00F0AEFC201C0021184A1C
:10C2E00000F06FFB201C0121164A00F06AFB164F7C
:10C2F000301C3A1C012100F0CBF9301C0221134AFA
:10C3000000F0C6F9281C3A1C012100F0C1F9281CD4
:10C310000E4A022100F0BCF9201C00F073FB0C490E
:10C32000014802F04AF8F8BDDC2A0020E428002089
:10C3300055080200B4280020C02800205C2A0020F4
:10C3400039C2010061C2010011C2010025C2010011
:10C350005C080200F0B52F488FB000F008FB02F037
:10C3600001FA2D4B1A68811A2C4A126891424ED953
:10C3700018600B2002F094F9061C0C2002F090F9D2
:10C380000AAD071C264902A802F0CBF802A9281C16
:10C3900002F0EBF8311C281C02F052F9011C06A82F
:10C3A00002F0E3F8281C02F075F81E4C1E49201C10
:10C3B00001F0EEFF06A9201C02F009F869460731DA
:10C3C00001221A480E7000F012F90122291C1848A7
:10C3D0002F7000F00CF91749201C01F0D9FF0A2238
:10C3E000311C201C02F04CF81349201C01F0D0FF36
:10C3F0000A22391C201C02F043F81049201C01F0CD
:10C40000F0FF06A802F046F802A802F043F80FB0C9
:10C41000F0BDC046E4280020BC28002004280020ED
:10C4200072080200DC2A002081080200C0280020D7
:10C430005C2A00208F0802009A080200A50802006A
:10C4400070B5154D0923281C0A21022200F040FC7A
:10C45000124C281C221C124902F023FF114D1248D5
:10C46000291C00F00CFD114E291C301C122200F07A
:10C470000FFD0F4D221C291C301C02F012FF0D4E27
:10C480000D49301C122200F003FD301C291C221C17
:10C4900002F007FF70BDC046E428002000280020FD
:10C4A00041CC0100F7080200B4280020C028002079
:10C4B000E9C101005C2A00201C09020001608280A1
:10C4C0007047006870478088704729DF704728DF11
:10C4D0007047036818680130431E9841C0B2704726
:10C4E00080235B0510B51969006803F0FBF8041C94
:10C4F000201CFFF7ECFF1128FAD010BD70B51D1CF1
:10C50000041C0E1CFFF7ECFFAD082068311C2A1C30
:10C51000FFF7DBFF1128F8D070BD10B500680022CE
:10C520009A4203D284588C500432F9E710BD0000BF
:10C5300010B5034C0430211C00F0C2FC201C10BDBF
:10C54000802A002008B50430062202F017FF08BD3B
:10C5500008B504300021062202F019FF08BD10B50D
:10C56000041C0160FFF7F4FF201C10BD807A7047A7
:10C57000C0687047007C704700207047C368585CF3
:10C58000704770B50D1C0168041CCE69111C1A1C83
:10C59000B0470123A374A369002B02D0281C211CDF
:10C5A000984770BD38B5051C081C0C1C02F0C4FF70
:10C5B0002B68C2B2DB69281C211C984738BD0000DB
:10C5C000054B10B50833041C0360C068002801D077
:10C5D00002F0CAFE201C10BD4809020010B5041C60
:10C5E000FFF7EEFF201C02F063FE201C10BD10B50B
:10C5F000041C807A131C824200D9031CDAB2237413
:10C60000E06802F0BBFE6069002804D00368211CCA
:10C610001B68984700E0012010BD000070B5041CA5
:10C62000161C04300F4A1D1C00F090F80E4B083306
:10C6300023602B1C142D00D914230021201CA3726D
:10C64000E16021746674A174E174616118300C2298
:10C6500002F09DFE002D03D0A07A02F07BFEE06088
:10C66000201C70BD0328000048090200407C704770
:10C67000C07C704708B5031CC27450424241073267
:10C680009200D258002A02D0081C191C904708BDFD
:10C690000C2902D2063189000A5070474161704767
:10C6A0007047704770470020704770477047002000
:10C6B000704700207047002070470020704700201E
:10C6C000704700207047002070470020704700200E
:10C6D0007047002070470020704700207047704767
:10C6E00070477047014B08330360704778090200B8
:10C6F00010B5044B041C0833036002F0D9FD201C64
:10C7000010BDC04678090200064B012208330360C1
:10C71000642383800023C38003818272C36003612A
:10C720007047C046780902000161704701207047D8
:10C7300038B5041C1D1CFFF771FF034B257408332B
:10C74000201C236038BDC046E009020010B5041C5F
:10C75000FFF7B4FE024B201C1A7801321A7010BD8C
:10C76000922A0020014B18787047C046922A002078
:10C7700008B5C06803681B6A984708BD08B4024B37
:10C780009C46043808BC604771C7010008B5C06802
:10C7900003685B6A984708BD08B4024B9C4604389E
:10C7A00008BC60478DC7010008B5C06803689B6A74
:10C7B000984708BD08B4024B9C46043808BC604743
:10C7C000A9C7010008B5C0680368DB6A984708BDBF
:10C7D00008B4024B9C46043808BC6047C5C701003A
:10C7E00008B5C06803681B6B984708BD08B4024BC6
:10C7F0009C46083808BC6047E1C7010008B5C0681E
:10C8000003685B6B984708BD08B4024B9C46083828
:10C8100008BC6047FDC7010008B5C06803689B6B92
:10C82000984708BD08B4024B9C46083808BC6047CE
:10C8300019C8010010B5C0680468E46BA04710BDBA
:10C8400008B4024B9C46083808BC604735C8010054
:10C8500008B5C06803681B6C984708BD08B4024B54
:10C860009C46083808BC604751C8010008B5C0683C
:10C8700003685B6C984708BD08B4024B9C460838B7
:10C8800008BC60476DC8010008B5C06803689B6CB0
:10C89000984708BD08B4024B9C46083808BC60475E
:10C8A00089C8010008B5C0680368DB6C984708BDFB
:10C8B00008B4024B9C46083808BC6047A5C8010074
:10C8C00008B5031CFC335B6F002B02D05D30FF30DA
:10C8D000984708BD08B5031CFC339B6F002B02D0A2
:10C8E0005D30FF30984708BD70B51468AE261D1C3A
:10C8F000760004AB81191B78101C646A2A1CA047BF
:10C9000070BD70477047704738B5AE235B00C418E0
:10C91000051C111C201CFC35FFF714FEEB6E002BD0
:10C9200001D0201C984738BD031CFC33AE221B6F7E
:10C93000520010B58418002B01D0201C9847201CF1
:10C94000FFF706FE10BD10B5AE2464000119101CDF
:10C950001A1CFFF78FFE10BD08B5011C5D31101CBD
:10C960001A1C02AB1B78FF3100F06CFA08BD08B549
:10C97000C0680368DB68984708BD08B5C0680368ED
:10C980001B69984708BD8830016070479830016086
:10C99000704770B5041CA4342368051C0E1C002BC2
:10C9A00005D100F01BFA800002F0D4FC2060281CA6
:10C9B000A830027823689200D650037801330370C0
:10C9C00070BD102902D25A3189000A50704710B543
:10C9D000041CFFF7C7FE800002F0BCFC231C9C3344
:10C9E0001860103303600C33436084222433836067
:10C9F00052002033C360A3180361A03405232370C1
:10CA000010BD0000F0B5031CAFB00EA900268C339A
:10CA10000E701968041CB1421CD008A800F094FAEA
:10CA200008A800F0C2FA022282427641152216AB13
:10CA3000961B051C18705E7008A800F0B4FA1A2640
:10CA4000011C68462A1C761B5A3002F097FCF6B28D
:10CA5000012501E01C260D1C231C883319680029C0
:10CA600025D008A800F070FA08A800F09EFA431C30
:10CA7000071CB3421BDA1F23191C694316AA8854EA
:10CA8000191C0223984200D90623694351184B70A0
:10CA900008A8079100F087FA011C07983A1C023099
:10CAA00002F06CFC023E0135F61BEDB2F6B2231C1F
:10CAB00090331968002915D01A79002A12D0022E55
:10CAC00010D9531CB34201DB023EF2B21F2068436F
:10CAD00016ABC2541818FF234370023002F04EFC0C
:10CAE0000135EDB2231C98331E68002E19D0301C7E
:10CAF00002F022FDC0B21D2802D80EAA107002E07A
:10CB00001D230EA90B700EAB1A78002382425B41E5
:10CB100039216944083368460B703A30311C02F001
:10CB20002DFC271C9C373A68002A02D1201CFFF7F5
:10CB30004EFF00230793231CA0331B7807999942CB
:10CB400014DA07993A688B009E58301CFFF7BBFC3B
:10CB50002E4B984207D1002E01D0301F00E0301C30
:10CB6000211DFFF79BFD079B0133E3E70022231CF8
:10CB70000792A8331B780799994217DA231C079963
:10CB8000A4331B688A00D658301CFFF79CFC1F4B4F
:10CB9000984208D1002E01D0301F00E0301C211C2B
:10CBA000083100F062F9079A0132E0E7002B0BD060
:10CBB00094225200201CA118FFF7EBFE9A235B0081
:10CBC000201CE118FFF7E5FE0EA90B78E068591E5E
:10CBD0008B410EA9026800913F68211C0197A0318A
:10CBE0000978DBB20291211CA43109680391211C50
:10CBF000A831097804919668291C16AAB047E06804
:10CC000003681B6D98472FB0F0BDC0460328000095
:10CC100070B5051C9C352B68041C0E1C002B01D123
:10CC2000FFF7D5FEA03422782B689200D6502378E7
:10CC30000133237070BD08B5FFF7EAFF08BD00009F
:10CC4000184B10B51A1C083202601A1C7032883357
:10CC5000041C83604260FFF790FE231CA433186815
:10CC6000002801D002F080FB231C9C3318680028A8
:10CC700001D002F079FB98235B00E01800F0B4F8D3
:10CC8000601DFF30FFF79CFC201CD830FFF798FC9C
:10CC9000201CB430FFF794FC201C103000F06AFE1A
:10CCA000201C10BD380A020010B5041CFFF7C8FF95
:10CCB000201C02F0FDFA201C10BD07B56B46D98080
:10CCC0000633D830191C0222FFF791FC07BD000083
:10CCD000354BF7B51A1C083202601A1C8833836082
:10CCE000031C70321033041C4260181C009301F0C6
:10CCF00051FA231C002588335D609D601D731D6102
:10CD00005D611D76DD611D60201C04331D772749A0
:10CD1000AC3000F0B4F8231CB4330193181C244940
:10CD200002221323FFF77AFC0222201C131C214944
:10CD3000D830FFF773FC204F201C391CFC3000F06A
:10CD40009EF81E4E601D311C20220423FF30FFF789
:10CD500065FC94235B00391CE01800F088F89823E8
:10CD60005B00311CE018202200F050F8AE235B007D
:10CD7000E018211CFFF7F3FB009B1022E360B423B3
:10CD80005B00E018291C02F002FB01980C49FFF738
:10CD900009FC291C201CFFF790FFE068211CFFF70D
:10CDA000C3FC201CFEBDC046380A0200100A020067
:10CDB000150A02001A0A02001F0A0200240A0200D1
:10CDC000290A020010B5041CFFF778FB024B201C57
:10CDD0001A7801321A7010BD932A0020014B18787E
:10CDE0007047C046932A0020014B08330360704708
:10CDF000E00A020010B5044B041C0833036002F083
:10CE000057FA201C10BDC046E00A020038B5041CC9
:10CE1000151C0430094AFFF7D5FF094B00210833E0
:10CE20002360201CE31CA572E1720422D97728300C
:10CE3000616202F0ACFA201C38BDC0460328000035
:10CE4000E00A020038B5041CC3720D1C0C30111C22
:10CE50001A1C02F093FAE31C0122DA77A36A002B72
:10CE600002D0281C211C984738BD4162704710B57C
:10CE7000A022041C9201FFF7A5FF201C10BD10B5D5
:10CE8000A022041C9201FFF761FC201C10BD0000D1
:10CE900013B50123041CFFF74BFC074B69462360C5
:10CEA00007310023201C01220B70FFF7A0FB034B6E
:10CEB000201C236016BDC04680070200B007020098
:10CEC000F0B51E4C8DB0051C0E1C6846211C01F0EF
:10CED00028FB211C04A801F024FB05242B5D0F2B4B
:10CEE00003D86846164901F08EFB1022295D08A878
:10CEF00001F057FB08A904A801F027FB08A801F0DE
:10CF0000C9FA684604A901F077FB671E002C06D019
:10CF100068460C4901F077FB3C1C7B1CDED1311CC0
:10CF200012220023684601F0A0FB04A801F0B2FA27
:10CF3000684601F0AFFA0DB0F0BDC046C80C020063
:10CF4000130A0200F00A0200F0B5002385B0041CA9
:10CF500003AE21600375081C0F1C33707370B3702F
:10CF600002F0EAFA451E002D1ADB237D01930F2BF8
:10CF700016D87B5D2D2B01D101350FE07A19013ACE
:10CF80001278301C327000211022737002F06CFB9A
:10CF9000019AA3181871237D01332375023DE2E73E
:10CFA000201C05B0F0BD04307047007D704771DF74
:10CFB000704772DF704773DF704775DF704776DF49
:10CFC000704777DF704778DF70477ADF70477CDF24
:10CFD00070477EDF70477FDF704782DF704790DFEA
:10CFE000704792DF704795DF704797DF704798DF93
:10CFF0007047A0DF7047A2DF7047A3DF7047A4DF50
:10D000007047A6DF7047A9DF704760DF704761DFB8
:10D01000704762DF704763DF704752DF704710DF91
:10D02000704711DF70475C300078431E9841C0B2F2
:10D0300070475C300078431E9841C0B2704730B5ED
:10D04000031C6D33021C18780023834213DA156F1A
:10D050001C012C1925688D420BD1E38900208342E5
:10D060000AD0237B990707D57432137801205840E2
:10D0700002E00133E9E7002030BD38B5031C6D3311
:10D080001A780023934219DA056F1C012C192568C0
:10D090008D4211D1E1890022914210D0237B9C075F
:10D0A0000DD5031C743301241C70008FFFF79BFF08
:10D0B00042424241D2B202E00133E3E70022101CB7
:10D0C00038BD30B5021C6D32031C1078002282423C
:10D0D0001BDA1D6F14012C1925688D4213D1E289CA
:10D0E0000020824212D0227B110704D574331B78B2
:10D0F000012058400AE0550708D55C331878431ED4
:10D100009841C0B202E00132E1E7002030BDF0B545
:10D1100087B0041C01936D3006780020B0422FDAEE
:10D12000236F05015D192F688F4227D1EF890020F9
:10D13000874226D0297B0C25294222D0251C5C352C
:10D140002E7886421DD00907CB0F191C4B424B414C
:10D15000013303A90B70019B8A60CB80231C7433BD
:10D160000122013E1A7048704F8088802E70208FF7
:10D17000FFF73BFF43425841C0B202E00130CDE728
:10D18000002007B0F0BD30B5031C6D331C780023C0
:10D19000A34212DA056F1A01AA1815688D420AD146
:10D1A000D3890020834209D0107B30231840431ECE
:10D1B0009841C0B202E00133EAE7002030BD30B54B
:10D1C000021C6D32031C85B01078002282422BDADB
:10D1D0001D6F14012C1925688D4223D1E58900208B
:10D1E000854222D0227B30210A421ED0D106C90FAF
:10D1F0004A42514101316A46518001A9023201245B
:10D200008A601A1C48708880743202202D190C70B4
:10D210004D80C8801470188FFFF7E7FE43425841D5
:10D22000C0B202E00132D1E7002005B030BD08B540
:10D2300003681B6C984708BD30B5021C6D32031C97
:10D2400085B010780022824226DA1D6F14012C1955
:10D2500025688D421ED1E589002085421DD0217BA5
:10D260003022114219D06A4601A9508002320124AD
:10D270008A601A1C48708880743202202D190C7044
:10D280004D80C8801470188FFFF7AFFE434258419D
:10D29000C0B202E00132D6E7002005B030BD08B5CB
:10D2A0000B1C273314DB0B1C1D3313DB0B1C13333C
:10D2B00012DB0B1C0F3311DB0B1C0B3310DBCB1DF4
:10D2C00010DBCB1C10DBC817401AC00F80000DE02C
:10D2D00028200AE01E2008E0142006E0102004E0C8
:10D2E0000C2002E0082000E00420404240B2FFF79A
:10D2F00068FE43425841C0B208BD08B51321008FF3
:10D30000FFF75DFE08BD37B5041C6846FFF74FFE0A
:10D310002069002805D00268211CD5696A460132BF
:10D32000A84737BD0000000037B50023041C01A842
:10D330000193FFF772FE019802F08CFD094B084A39
:10D3400002F0F8FA02F0C4FD021C2069002803D0A4
:10D3500001680D6A211CA84737BDC046C046C046BB
:10D36000000000000000D03F704710B586B0041CDC
:10D3700000216846182202F00AF8A27A03235142DB
:10D380004A41524213406A461370A0880A210001A4
:10D3900002F0F6F96B4618826846FFF70CFE06B0FD
:10D3A00010BDF0B5031C5D331A7891B0051C0C1C40
:10D3B0000023934260DA14275F43296ECF1939683E
:10D3C000A14209D1201CFFF751F90122104253D08C
:10D3D0007B68002B02D14FE00133EAE72A1C33328D
:10D3E00001921678291C321C143108A801F0C6FFDE
:10D3F0002368201C1B69984704303618F6B21F2E8C
:10D400003AD87868FFF75DF8011C02A8FFF79CFD89
:10D41000236801991B69201C0F78984708AA019B73
:10D420000330D0551F7802A8D31916225A70FFF77F
:10D43000BAFD023708AA011CD019022201F09EFF92
:10D44000019B08A91F7823680437DB68201CCF19CB
:10D450009847236801901B69201C98470199021C7A
:10D46000381C01F08BFF002208A8311C131CFFF7A9
:10D47000A0FD6C63012000E0002011B0F0BDF0B50C
:10D48000D5B069468E230DAE5B001231041C301CF2
:10D490000B80FFF7BCFD031E00D04DE23288302A1E
:10D4A00000D137E111D8112A55D004D8012A21D052
:10D4B000102A25D040E2142A00D1BFE0172A00D15B
:10D4C000C7E0132A00D037E299E0372A00D1E9E11A
:10D4D00006D8322A00D16AE1352A00D1C8E12BE210
:10D4E000502A00D1C8E0522A00D10DE1382A00D0DC
:10D4F00022E2F7E15C34327A2378D31823701BE2FE
:10D50000B388201C23875C30FFF783FD2069002847
:10D5100005D003686A461B68211C3B329847E288A5
:10D52000052A0FD92389C82109018B420AD807A9E6
:10D530004B8000238B80C8235B000A80CB80208F28
:10D54000FFF73BFD231C64331B78002B00D1F3E174
:10D55000208F012115E1012252422287221C5C32D8
:10D560001070061C231C5D331B789E4216DA1425AE
:10D570007543206E002745192F746F742868FFF7D4
:10D5800077F8B84208D02069B84205D003682A6805
:10D59000211C5D693B1CA8470136E3E72069002890
:10D5A00003D00368211C5B6898470025231C643363
:10D5B0001B789D420ADA0C206843A16E04220818E9
:10D5C0000830002101F0E3FE0135EFE70023221CC3
:10D5D0006D321278934209DA226F19015018002235
:10D5E0000273256F01336918CA81F0E7231C743375
:10D5F00000221A702368201C9B6998479CE1E06810
:10D60000002800D192E1FEF764FF002800D08DE1F0
:10D6100005AA01230C20D37003431370A06D0723C8
:10D62000002153701023937011710A910B910C918A
:10D63000079008910991208F07AB7BE1A16DF289DA
:10D640004D8A208F954200D0191C1A1CFFF7C5FC8B
:10D6500072E1B279002A00D06EE1E068002804D0BF
:10D66000211C3C311C23FEF749FF2069002800D112
:10D6700062E103689B68F8E0F78802900397231C37
:10D680005D331B78029F9F4200DB55E1029F14250A
:10D690007D43206E039F45192B89BB420BD1206926
:10D6A000002800D148E1B17F03682A6800911D6914
:10D6B000211C15AB2EE1AB89039FBB4220D16B46E9
:10D6C00055331F7815AB1B783F021F4301233A1CCB
:10D6D000DF401A401F402A746F74002A00D01F1CBC
:10D6E0002868FEF7C5FF87420AD02069002800D1CC
:10D6F00022E103682A68211C5D693B1CA8471BE1E5
:10D70000029D01350295BAE7208F191C1A1CFFF7FC
:10D710007AFC11E1F288002A03D0221C64321278CC
:10D720003BE0B589171C02956D464635029A974233
:10D7300020DA231C64331A780023934217DA0C2072
:10D740005843A16E0818A91E09788C4681798C452A
:10D750000BD1291F09888C4681888C4505D1291C4D
:10D760000422083001F00AFE01E00133E5E7013749
:10D770000835DBE7029D208FEF00F719B9890131E9
:10D7800089B20022FFF72BFCD6E00C215943A66E8C
:10D7900071180889002803D101339342F5DBCBE0EF
:10D7A00048890028F8D0221C6C32137055E0F288AA
:10D7B000201C6C30002A3BD103780C214B43A56E12
:10D7C000101CEB189B680793B68911AB029602995F
:10D7D000884228DA0021221C6D32127891421CDA2C
:10D7E000276F0A01BA18271C6C373F780C2677433D
:10D7F00056687F59B7420ED11F78BC46977ABC4510
:10D8000009D19F1E3F88BC461789BC4503D19F782C
:10D810001773DF88D7810131DDE7D98807AA118026
:10D8200001300A33D3E7208F07A9FFF7DAFB83E043
:10D830000378221C6432013315780C225A4301E02C
:10D8400001330C32AB420BDAA66EB1180E89002EF2
:10D85000F6D04E89002EF3D00370208F0831E4E714
:10D860002069002868D00368DB68211C984763E0C2
:10D87000221C74321070F1880622FF32914202D1CC
:10D88000E768002F19D1231C6D33B0891978002364
:10D890008B4251DA256F1A01AA18D58985422ED0FC
:10D8A0000133F5E7221C74321070F1880622FF3232
:10D8B000914241D1E668002E3ED007A90B71180EA7
:10D8C0000122DBB210431A431C239A430C231A4350
:10D8D00007234B701023C8700A708B70208FFFF7DE
:10D8E00078FB29E0B37BB589022B03D1208F291C5B
:10D8F000FFF77DFB231C6D331978002313E02069AB
:10D90000002819D0317C0368126800919D696B462C
:10D91000211C4633A8470FE0276F1A01BA18D08997
:10D92000A842ECD001338B42F6DB05E00022208FC9
:10D930008521131CFFF74FFB55B0F0BD10B5041C3B
:10D94000FFF76FFB206F002801D001F00DFDA06EE6
:10D95000002801D001F008FD206E002801D001F060
:10D9600003FD221C00235D326D341370D3712370CC
:10D9700010BD000010B5054B041C08330360FFF711
:10D98000DDFF201CFEF7AEFE201C10BDF80A0200D1
:10D9900010B5041CFFF7EEFF201C01F089FC201CD1
:10D9A00010BD000013B51288041C68460280418037
:10D9B0006A46211C02480193FFF721FB16BDC046B1
:10D9C000FFFF0000F0B5EBB0029372AB1B78071CB1
:10D9D000069374AB1B78039108200021141C0025CA
:10D9E00005930126FFF71BFB0CA80C9545600670FC
:10D9F000FFF70BFB0EA82823038050234380C82386
:10DA0000B340C3808580FFF7E0FA281CFFF7D9FAFE
:10DA100002233B750623BB7503983B1C333303225B
:10DA20007E751A70A84203D102990B1E3DD01DE0ED
:10DA3000002CF9D0039A9542F6DA3E1C3336307842
:10DA400022783B1801321A7562780230C0B25A75DA
:10DA5000307038182278A11C143001F08FFC227825
:10DA600033780135D31833701F34E3E7709B002BF4
:10DA70001AD000251C1C2B1C02998D4215DA267821
:10DA800022A8721CC2546178C2180233DBB25170F2
:10DA9000C018A11C321C019301F070FC01980135E3
:10DAA0003618F3B21F34E7E7709B3A1C3332381C48
:10DAB0001178143022AAFFF77CFA0020FFF783FACE
:10DAC0000024069B9C420EDA719AA300D058FEF700
:10DAD000FAFCC94B984204D13B1C5D331A780132E1
:10DAE0001A700134EDE73A1C5D3213781420033BC1
:10DAF000DBB21370584301F02DFC002338666846F2
:10DB00000384029307930393029B0698834200DBEE
:10DB1000F3E10299719A8B00D458201CFEF7D1FCD6
:10DB2000011C15A8FFF710FA15A8FFF73CFA051C11
:10DB300015A8FFF73AFA022808D16A782978120264
:10DB40000BAB0A431A8001229A7013E02AAE291CFB
:10DB50001022301C01F012FC6A7B2B7B12021A434C
:10DB600069460BAB1A80301C00232E31737333735C
:10DB7000FFF751FA201CFEF7A6FCA0239B01984258
:10DB800012D1201CFEF79DFC9C4901F0C3FC00282B
:10DB900000D1AEE1201CFEF794FC994901F0BAFCDB
:10DBA000002800D1A5E15CE2201CFEF78CFC924B22
:10DBB000984200D030E1002C00D0043C251D281CE8
:10DBC000FEF77FFC8F4901F0A5FC002811D12AAD9A
:10DBD00011232B702368201CDB6898472368061CE0
:10DBE0001B69201C9847311C021C281CFFF7EFF909
:10DBF0007FE1281CFEF765FC834901F08BFC0028BF
:10DC000007D12368201CDB6898470088FFF7DBF901
:10DC10006FE1281CFEF755FC7C4901F07BFC0028D5
:10DC200000D166E1201CFEF721FD2368051C1B695D
:10DC3000201C98476B465884039814235843396E28
:10DC4000079A0B181BAE00215A6004901C601974CF
:10DC500059741C22301C01F09AFB01222B1C9343A7
:10DC6000337030231D4208D0101C102109AB08432B
:10DC70000222187058709A70736100220AAB1A80E1
:10DC80009A703222154210D01978F8680F22914309
:10DC9000002804D0012001430A40202103E0012094
:10DCA00001430A4010210A431A700C231D4213D06D
:10DCB000F9680F220AAB002906D059780120914358
:10DCC00001430A40202105E0597801209143014396
:10DCD0000A4010210A435A700AADAB7806229343DA
:10DCE00002221343AB702368201C9B699847A978D4
:10DCF00001231A1C994382430B1C1343029AAB70F5
:10DD0000013201920198069988420ADA01987199C4
:10DD10008300CD58281CFEF7D6FBA4239B01984214
:10DD200021D010AD00211422281C01F030FB0BABD8
:10DD300010936A460AAB6B60538C201C2B812368BE
:10DD400000269B6898470499A881386E2A1C4318BE
:10DD50000833301C1BA92E61FFF74DF96A46538C1E
:10DD6000B3422ED143E0002D00D0043D2E1D301CC7
:10DD7000FEF7A7FB264901F0CDFB002810D12B6848
:10DD8000281C9B6898471C902B68281CDB689847C8
:10DD90002B681BAE3081DB68281C984770810CE033
:10DDA000301CFEF78EFB1B4901F0B4FB002804D1A8
:10DDB0002B68281C9B6898471E90019B0133019398
:10DDC000A0E76A46223213889E4208DA2368311C93
:10DDD0005B69201C98472AABF0540136F1E7386E96
:10DDE00004994318188900212AABFFF7DBFD039B38
:10DDF0000133DBB203937CE003280000100A020029
:10DE00001F0A0200150A02001A0A0200240A020070
:10DE1000600B0200650B0200201CFEF754FBA423DC
:10DE20009B01984265D1002C00D0043C251D281C84
:10DE3000FEF747FB9F4901F06DFB002859D0281CD5
:10DE4000FEF73FFB9C4901F065FB002851D0281CE0
:10DE5000FEF737FB994901F05DFB002849D0281CEB
:10DE6000FEF72FFB964901F055FB002841D02368AF
:10DE7000201CDB6898470AAB061C1880002114227E
:10DE80001BA801F084FA10AD00232B800223AB7095
:10DE90002368201CDB689847331A5E1EB341AE78B6
:10DEA00001229643F8681E43AE700F23297800289C
:10DEB00000D1DDE099430A431340202213432B7025
:10DEC0000BAB1B936A4610AB1C93138D1BAD2B81C0
:10DED0002368201CDB6898470026A881291C301C79
:10DEE00008AA2E61FFF789F86846038DB34200D077
:10DEF000C3E0029A0132029206E60599002903D096
:10DF00000B1C023BDBB205930024059B9C4219DAF3
:10DF1000739AA300D558281CFEF7D5FAA0239B01BD
:10DF2000984202D13B1C643307E0281CFEF7CBFA71
:10DF3000644B984204D13B1C6D331A7801321A703D
:10DF40000134E2E73B1C64331B780C20584301F09A
:10DF500001FA3B1CB8666D3318780025000101F00A
:10DF6000F9F9019538670295039505998D426BDAA9
:10DF70007398AB00C458201CFEF7A3FA011C2AA812
:10DF8000FEF7E2FF2AA8FFF70EF8061C2AA8FFF703
:10DF90000CF8022808D172783178120215AB0A43C6
:10DFA0001A8001229A7014E0311C10221BA801F083
:10DFB000E5F9727B337B12021A43792115AB1A8083
:10DFC000694400230B701EAA1BA823391370FFF7A6
:10DFD00022F8201CFEF777FAA0239B01984214D167
:10DFE000029B0C205843B96E0B181C60159A002137
:10DFF0005A60BB6E04221818083001F0C8F9029B61
:10E0000003940133DBB202931CE0201CFEF75BFAA1
:10E010002C4B984216D10198396F0301CA18002C75
:10E0200000D0043C039814605060159991603A6FD9
:10E03000D11800220A73386FC318DA81019B0133AB
:10E04000DBB20193013590E7F868002803D0FEF7B2
:10E0500040FA002825D13B68381C9B6998476BB073
:10E06000F0BD01200BA908AAFEF7C3FF079440E703
:10E0700099430A431340102220E70AAA13889E42BC
:10E0800008DA2368311C1B69201C98472AABF0541E
:10E090000136F2E76946088C2AAB0021FFF782FCC3
:10E0A00027E7391CF8683C3100221C23FEF735FABB
:10E0B000D1E7C046600B02006A0B02006F0B020042
:10E0C000650B020003280000F0B5002289B001238F
:10E0D000041C0D1C00920193231C5D331B78009AD5
:10E0E0009A4254DA009A14275743236EDF193A688C
:10E0F000AA4248D1636B9D4204D12368201C5B6A0D
:10E10000291C98472B68281C1B6998472B686A466E
:10E11000D081DB68281C3E8998476A46031C002191
:10E12000301C0E3204AEFFF73DFC301C00211022E3
:10E1300001F02DF93B8933800E236B44B3603B7CA7
:10E14000002B0ED0221C5C321378002B08D0013B30
:10E1500013700123B370208F311CFEF752FF00E0D3
:10E1600001937B7C002B0ED0221C5C321378002B99
:10E1700008D0013B13700223B370208F311CFEF7CF
:10E1800040FF00E00193009A01320092A4E7019859
:10E1900009B0F0BD10B5041CFEF7B6FA0E4B002115
:10E1A00008332360231C3333197001235B42238718
:10E1B000201C231C5C333C3061631C221970597095
:10E1C00021661972A1661974597421671976A065C0
:10E1D00001F0DDF8201C10BDF80A020008480268B2
:10E1E00003210A4302600749074A084B9B1A03DDD3
:10E1F000043BC858D050FBDC054880470548004721
:10E200002405004024110200002800209828002046
:10E2100025E2010021C10100FEE7FEE7FEE7FEE77F
:10E22000FEE7FEE7334B10B51A78181C012A12D10D
:10E23000314B1B6819070ED1304BF0221B68E024CC
:10E24000191C1140234204D12D4B1B68134202D1EB
:10E2500040E03029F8D00378012B0DD1264A12680E
:10E26000110709D1254A1168F0221140402903D134
:10E2700023490968114235D08023A321DB050122FF
:10E28000C9005A501F49002088609A601E4B8A6856
:10E29000002A2DD1C822C046C046C046C046C0464E
:10E2A000C046C046C046C046C046C046C046C0463E
:10E2B000C046013A002AEED1013B002BE7D1802273
:10E2C000A320D205C0001350012393608B68002B5C
:10E2D000FCD00DE00D490E4A116080210D4A090263
:10E2E0001160B8E7C1228021D200C9058B50C3E775
:10E2F00010BDC046E00F00F0E40F00F0E80F00F0A2
:10E30000EC0F00F0FC00004088130000DFFF07C0A6
:10E3100004050040186C0040F8B5061C0C1C8F1852
:10E320000025BC4207D0336821781B68301C984711
:10E3300001342D18F5E7281CF8BD38B5051C0C1C58
:10E34000081E07D001F0F8F82B68021C5B68281C37
:10E35000211C984738BD08B5FFF7EFFF08BDF7B59A
:10E360000024061C0D1C271CAB689C420ED233688F
:10E37000211C1B68281C019300F06DF9019B011CF6
:10E38000301C984701343F18A4B2EDE7381CFEBD9D
:10E3900008B5FFF7D2FF08BD08B503681B689847AA
:10E3A00008BD38B50D21041CFFF7F6FF0A21051C36
:10E3B000201CFFF7F1FF401938BD38B5041CFFF7EA
:10E3C000BCFF051C201CFFF7ECFF281838BD38B532
:10E3D000041CFFF7C4FF051C201CFFF7E2FF4019D7
:10E3E00038BD38B5041CFFF7A8FF051C201CFFF73B
:10E3F000D8FF281838BDF0B58BB0151C09AB00222A
:10E40000071C0E1C1A70012D00D80A256C462334F7
:10E41000301C291C01F066F9031C6B43F61AF6B296
:10E42000211C092E01D8303600E03736F6B22670AE
:10E43000013C002801D0061CEAE7381CFFF77DFFED
:10E440000BB0F0BDF8B5041C0D1C161E04D10368FA
:10E45000C9B21B68984712E00A2A0DD100290ADACE
:10E460002D21FFF799FF6942071C321C201CFFF782
:10E47000C2FFC01903E000E0D2B2FFF7BCFFF8BD55
:10E4800038B5041CFFF7DEFF051C201CFFF789FFD1
:10E49000281838BD10B5041C006800F065FF201C6A
:10E4A00010BD10B5041C0068002801D000F05CFF0E
:10E4B00000232360A360636010BD38B5041C0D1CED
:10E4C0000068013101F008F8002801D021C40120C2
:10E4D00038BD036810B5041C002B02D043688B4282
:10E4E00009D2201CFFF7E9FF002805D0A368002B04
:10E4F00001D122681370012010BD70B50E1C111CD3
:10E50000041C151CFFF7E5FF002803D1201CFFF7B2
:10E51000C8FF04E0A5602068311C01F005F8201C4C
:10E5200070BD38B50023041C0D1C0360436083607C
:10E530000373994207D0081C00F0FEFF291C021C3F
:10E54000201CFFF7DAFF201C38BD10B50B1C041E81
:10E550008C4208D00968002903D09A68FFF7CDFFE4
:10E5600001E0FFF79EFF201C10BD10B50023041C26
:10E570000360436083600373FFF7E7FF201C10BD57
:10E5800038B5041C0D1E08D0081C00F0D5FF291C4E
:10E59000021C201CFFF7B1FF01E0FFF782FF201CE7
:10E5A00038BD1FB50023041C036043608360037300
:10E5B000081C01A900F048FA201C01A9FFF7E0FFA0
:10E5C000201C04B010BDF8B5041C0F1C866801D1D6
:10E5D00000250FE00125002A0CD09619311CFFF709
:10E5E00078FF0028F4D02268A368391CD01800F006
:10E5F0009BFFA660281CF8BD08B50B1C9A6809682B
:10E60000FFF7E1FF08BD38B5051C0C1C081E06D03D
:10E6100000F092FF211C021C281CFFF7D4FF38BD1C
:10E6200013B50A22041C081C694600F0D5F9684697
:10E6300000F082FF6946021C201CFFF7C4FF16BDD4
:10E6400010B5041CFFF7ECFF002802D1201CFFF7D7
:10E6500028FF201C10BD031C9A680020914203D2A1
:10E660001B68834200D0585C704738B50D1C002AE7
:10E6700014D0002912D081688B4202D300232B7062
:10E680000CE0541EC91A8C4200D90C1C0168221CD3
:10E69000C918281C00F057FF00232B5538BD000077
:10E6A00010B500F0BBFD041C601C04D124482549B2
:10E6B0005F2200F0CDF9631EDBB2062B3DD8224B62
:10E6C00001221968214B89001B68101C5B0119434A
:10E6D000022319431E4B1B681B041943631C9840FB
:10E6E00003020C1C1C431B491B4B50425C50C221B3
:10E6F00089005850A021C9005A501A60C046C0462F
:10E7000014498022D2009A58D007FAD4A122124884
:10E71000D2008058114A12780A2A07D0092A03D851
:10E720000A24A21AD04001E00A3A9040A022D20066
:10E7300000249C505A585A5000E0094810BDC04669
:10E74000740B02008B0B0200102800200828002008
:10E75000942A002004050000007000400C280020CE
:10E76000FFFF000008B500F0B3FCFA21890000F0BB
:10E77000B9FF08BD30B587B00C1C00F04FFD051C7B
:10E78000431C04D10D480E490F2200F061F96B467D
:10E790001D70012C06D0002C04D0022C0BD10021BE
:10E7A000032501E0211C0025684600F015FA6846A3
:10E7B000291C00F00BFA07B030BDC046740B0200F4
:10E7C000FA0B020001207047054B1A1C40321078EA
:10E7D00041331B784030C01A3F2318407047C04671
:10E7E000982A0020084A111C101C413140300B7837
:10E7F0000078984205D0D05C01333F2213400B7063
:10E8000001E0012040427047982A0020064B1A1C64
:10E81000191C4132403112780978914201D0985C3C
:10E8200001E0012040427047982A002007B5034BC1
:10E830006846009300F04CFB0EBDC046002000402F
:10E8400007B5044B0093684600F050FB0028FAD04F
:10E8500007BDC0460020004030B5074B3F211A1CC1
:10E8600040321478651C29401D1C41352D788D429D
:10E8700001D01855117030BD982A00200023436044
:10E88000FA239B008360024B083303607047C04645
:10E89000700C020073B5101C1E1C0C1C00F0BEFC9A
:10E8A000051C301C00F0BAFC0B4B2A1C011C6846EE
:10E8B000009300F023FA01235B421A1C68460021F2
:10E8C00000F01CFB6846211C00F0F4F968460021AA
:10E8D000012200F0B7FA73BD0020004008B5002205
:10E8E0000123FFF7D7FF08BD08B5034800F0A0FCDF
:10E8F0000248FFF7C3FF08BD982A0020DC2A002049
:10E900007047704708B5FFF7FCFFFFF7F9FF00F00D
:10E910007FFC08BD084B1B681818EFF30882904273
:10E9200005D3064B0C2201201A60404202E0024A45
:10E930001060181C7047C04614280020202B0020AF
:10E9400008B5002800D1FEE700F0A6F8FBE7F0B517
:10E950008FB00D1C029235D0131C023B222B33D8F2
:10E960000A2A33D1002831DA01234642039305AC49
:10E970000194002E12D0301C029900F0F7FE301CDA
:10E980000F1C029900F0AEFE631C061C092F01DC6F
:10E99000303700E0573727701C1CEAE7019A944291
:10E9A000E9D0039A2B1C002A02D02D226B1C2A705E
:10E9B000019A944204D9013C22781A700133F7E796
:10E9C00000221A70281C05E0002003E00022061C2B
:10E9D0000392CCE70FB0F0BD08B5FFF7B8FF08BD54
:10E9E000F0B58DB0061C0D1C019228D0131C023B03
:10E9F000222B26D803AC0094002E12D0301C019993
:10EA000000F0B4FE301C0F1C019900F06BFE631C7B
:10EA1000061C092F01DC303700E0573727701C1C1B
:10EA2000EAE7009A9442E9D02B1C009A944204D958
:10EA3000013C22781A700133F7E700221A70281C73
:10EA400000E000200DB0F0BD08B5FFF7C9FF08BD1C
:10EA500038B5051C0C1C131C291C0248221C00F094
:10EA600054F838BD980C020038B50023C356041C76
:10EA70000D1C013304D1064806492422FFF7E8FFA4
:10EA80006368002D01D0E26800E02269136038BDA0
:10EA9000C90C0200E10C020000B599B068460F21D4
:10EAA00000F065F806A80F2100F061F80CA80F210E
:10EAB00000F05DF812A80F2100F059F86846012116
:10EAC000FFF7D2FF06A80021FFF7CEFF0CA8002118
:10EAD000FFF7CAFF12A80121FFF7C6FF962000F03A
:10EAE00056F868460021FFF7BFFF06A80121FFF78F
:10EAF000BBFF0CA80121FFF7B7FF12A80021FFF709
:10EB0000B3FF962000F043F8D8E70FB4012008B512
:10EB100000F0E4FB38B50023C356041C0D1C013380
:10EB200004D1064806492422FFF792FF6368002DAE
:10EB300001D0E26800E02269136038BDC90C020010
:10EB4000E10C020070B50D1C041C161C00F026F828
:10EB500001350BD0201C311CFFF7DCFF201C0121EC
:10EB600000F03AF8201C002100F030F870BD08B524
:10EB70000022FFF7E7FF08BD38B5041C00F0A8FA33
:10EB8000051C00F0A5FA401BA042FAD338BD08B519
:10EB9000FA239B005843FFF7EFFF08BD01704B1CA1
:10EBA0000AD001238B404360044BC360044B0361D4
:10EBB000044B4361044B83607047C0460805005016
:10EBC0000C050050100500501405005008B50078E1
:10EBD00040B200F01FF808BD38B50023C356051C2D
:10EBE0000C1C013304D1094809492A22FFF730FFE0
:10EBF000002C01D0012C07D10022AA56A023C1323B
:10EC0000FF329200DB05D45038BDC046C90C02006B
:10EC10007F0D020038B5041C0D1C431C04D10A48AA
:10EC20000A491A22FFF714FFA023A000DB05C01831
:10EC3000E023DB00C2580C218A43C250C258AD0009
:10EC40001543C55038BDC046CE0C02001A0E020056
:10EC5000114A00211165114A114B1188114A99502E
:10EC6000114A1178002904D010490888A821C90048
:10EC700058505178002903D00C4948880C49585005
:10EC80009278002A04D0094A9188A922D20099508A
:10EC900001221A607047C046FCA0004018280020DE
:10ECA00000A000404C050000EC2A00201A2800209B
:10ECB00044050000962210B50123D200914203DCE6
:10ECC0009E210268C90212E00A4ADC00A458A1424F
:10ECD00007DA013BDB00D21801685268064BCA50C4
:10ECE00007E00133112BEFD1802102684905024B67
:10ECF000D15010BDB40E020024050000F8B5314B10
:10ED0000161C0360304AA023DB05051C0F1C0120E4
:10ED10009958B840014399509C58802149000C43B0
:10ED20009C502A4C1A59104318511A59281C114347
:10ED300019511A590121B1408A431A511959244ACB
:10ED40000A4096211A518901FFF7B4FF2B68214927
:10ED500000205850A0210420C9005850012199607A
:10ED60001960191CFC3100220120CA6042421A4875
:10ED70001A501A4800220A621A5017480A6A012AD1
:10ED8000FCD10021A1226960D20008219950A22261
:10ED90000A21D2001F5099501E517A1C03D0381CF2
:10EDA0000321FFF737FF731C03D0301C0321FFF74B
:10EDB00031FF0B4B01221A60291C0822094800F080
:10EDC000DDFAF8BD00200040040500001405000035
:10EDD000FFFBFFFF6C0500000C0500001C05000098
:10EDE000F02A0020FC2A0020124AC1239B00D1589F
:10EDF00010B5080603D51049096A002911D1D35866
:10EE00005A0716D50C4BDA68002A12D00024DC60B1
:10EE1000084AA323DB00D058C0B2FFF71DFD211C18
:10EE200000E00121054B1868002802D0044B1B6844
:10EE3000984710BD00200040FC200040F82A002028
:10EE4000F42A002030B503681E4C18194442604172
:10EE50004000002A1BD0002903D0012905D18021C0
:10EE600000E00421C12292009950174BC022920069
:10EE700040B29C58C100FF258D40AC43C0258D4059
:10EE8000291C21439950012282401A6018E0002970
:10EE900008D0012914D1C222920080249C509B5892
:10EEA0009B0806E0C2229200042199509B58012140
:10EEB000DB09994304D001238340181C034BD86716
:10EEC00030BDC04600E0FFBF00E100E004E100E02B
:10EED00003681A1CFC32106A0128FAD10020106263
:10EEE000014AC9B2995070471C0500000368FC3301
:10EEF000186A01384342584170470000F7B50E1CAC
:10EF000001930223041C0D1C171C9E43012E13D1D8
:10EF10001F4BA022D205D158301CB8400143D1501C
:10EF2000381C0321FFF776FE2368A122D2009F50F0
:10EF3000184A99580E439E50AB1E012B16D8144BFD
:10EF4000A022019ED2050125D158281CB040814342
:10EF5000D150301C0321FFF75DFE2368A222D200AE
:10EF60009E500C4A99580D439D500FE0002D0DD135
:10EF700023680122A1215242C9005A50A221C9008E
:10EF80005A50044A0120995881439950F7BDC04610
:10EF9000140500006C0500000A490B4A88680B4BF9
:10EFA000002808D01868013018600020886002200E
:10EFB000D2218140505006491B6852581806190A40
:10EFC00010437047FC10014000100140082B002046
:10EFD000040500002F23C046C046C046C046C046B8
:10EFE000C046C046C046C046C046C046C046C046F1
:10EFF000C046013B002BEED170470000F8B5184B1E
:10F000009A68002A0AD0174A02201168013111605B
:10F0100000229A601449D222824088505B6C124CC4
:10F02000002B1CD00E4B8025D222920000266D02B0
:10F030005E64A5500D4A1378B34210D00C4B1F6884
:10F04000FFF7AAFF3F1AB74209DC084BD2221E7015
:10F05000C2239B009200E550A55000F0F7F8F8BDE0
:10F06000FC100140082B0020001001400D2B002057
:10F07000042B002038B5124C2278002A1FD1114BE6
:10F08000A121C9005A500222D22191405A50C121D7
:10F0900091405A500C4AC421890055580B482840C9
:10F0A000C0252D02284350508021C02089024000F5
:10F0B0000125115011601D60FFF78CFF257038BDD0
:10F0C0000C2B00200010014000E100E0FF00FFFFDA
:10F0D00008B50B4B1B78002B01D1FFF7CBFFFFF7D7
:10F0E0005BFF064B044A00F0CDFB4904C00B08430C
:10F0F00008BDC046C046C04640420F0000000000A8
:10F100000C2B0020C046C0462F4B70B51B78061C48
:10F11000002B01D1FFF7AEFFFFF73EFF254B244A3E
:10F1200000F0B0FB4B04C00B002400251843CD0BAE
:10F130000023321CA4185D4180231B06984205D988
:10F14000002E03DB1C4A1D4BA4185D41610CEB0330
:10F150000B43E2031A481B4980185941154B144AC6
:10F1600000F070FB194D041C2B78194E002B02D0B7
:10F17000336898421BD0FFF70FFF201A022802DCE9
:10F18000FFF70AFF841C2102124BA822D200090AB1
:10F1900099502A783460002A09D101222A70D2219C
:10F1A0008022520289005A50C12189005A5070BDF4
:10F1B00040420F00000000000000000001000000BD
:10F1C0003F420F00000000000C2B00200D2B002000
:10F1D000042B002000100140074B1A78002A0AD0A7
:10F1E000064A8021C220490280001150D2208000AE
:10F1F000115000221A7070470D2B002000100140A2
:10F20000024B00229A605A647047C046FC100140CD
:10F2100008B5FDF739F8FDF79DF8FCE7FF230E2848
:10F2200001D8024B1B5C58B27047C046440F020025
:10F2300010B50021041C402200F0A9F8221C403225
:10F240000023201C1370537010BD000008B5024845
:10F2500000F004F808BDC046680F020038B5036826
:10F26000041CDB68984763685A682368002A02D147
:10F270009B68984714E05B681568984763682D1A87
:10F28000002D08DC5A68916859601B68002BEAD091
:10F2900050689847E7E75B682268186813699847E1
:10F2A00038BD08B5031C081C191C00F007F808BD80
:10F2B00008B5002801D000F057F808BD38B5051C86
:10F2C00005480C1C131C002804D00220291C221CF9
:10F2D00000E000BF38BDC04600000000084B10B57C
:10F2E000041C002B02D0002100E000BF054B186871
:10F2F000836A002B00D09847201CFFF721FBC046F3
:10F3000000000000D00F020070B50E4B0E4D00241F
:10F31000ED1AAD101E1CAC4204D0A300F358984760
:10F320000134F8E701F01CFA084B094D0024ED1AEE
:10F33000AD101E1CAC4204D0A300F3589847013412
:10F34000F8E770BD88280020882800208828002041
:10F350009428002008B5034B011C186800F068F8D9
:10F3600008BDC0468028002008B5034B011C186862
:10F3700000F016F808BDC0468028002010B5002314
:10F38000934203D0CC5CC4540133F9E710BD031C95
:10F390008218934202D019700133FAE770470000D7
:10F3A00030B5002940D004390B68002B00DAC918A9
:10F3B0001E4A1368141C002B02D14B60116033E00D
:10F3C00099420FD208680A189A4205D11368526808
:10F3D000C01808604A6000E04B60216024E08A4267
:10F3E00003D8131C5A68002AF9D11D685C198C4295
:10F3F0000BD10968691858181960904214D1146823
:10F400005268091919605A600EE08C4202D90C2327
:10F41000036009E008680C18944203D1146852682C
:10F42000001908604A60596030BDC0461C2B00209E
:10F4300070B50323CD1C9D430835061C0C2D01D24D
:10F440000C2501E0002D3FDB8D423DD3204B1C6895
:10F450001A1C211C002913D00868431B0DD40B2B48
:10F4600002D90B60CC181EE08C4202D16368136095
:10F470001AE0486860600C1C16E00C1C4968E9E75B
:10F48000144C2068002803D1301C00F031F82060B3
:10F49000301C291C00F02CF8431C15D0C41C03237D
:10F4A0009C4384420AD12560201C0B300722231D77
:10F4B0009043C31A0BD05A42E25008E0211A301C84
:10F4C00000F016F80130EED10C233360002070BD3F
:10F4D0001C2B0020182B002008B50A1C0349031C14
:10F4E0000868191C00F0CEF808BDC046802800202E
:10F4F00038B5074C0023051C081C2360FFF70AFAE7
:10F50000431C03D12368002B00D02B6038BDC046BC
:10F51000202B002002780B7801300131002A01D025
:10F520009A42F7D0D01A7047031C0A7801311A703A
:10F530000133002AF9D170470023C25C0133002A4D
:10F54000FBD1581E704730B5031C002A07D00C7839
:10F5500001335D1E013A2C700131002CF5D19A184F
:10F56000934203D0002119700133F9E730BD000048
:10F57000F0B51D1C3B4B87B01B68059002930491AE
:10F58000171C0B1C02991C785E1C0A195178082262
:10F590000A4001D0331CF5E72D2C04D101229E1C1A
:10F5A0005C78019204E001922B2C01D15C789E1CC6
:10F5B00010232A1C9A4311D1302C08D132782021F3
:10F5C0008A43582A07D174781D1C023606E0002DA4
:10F5D00004D10A2502E0002D00D108250120291CB4
:10F5E000404200F07FF8039001204042291C00F0C7
:10F5F000BDF800238C46181C02990A19527851074D
:10F6000001D5303C07E00321114017D057220129D2
:10F6100000D13722A41AAC4210DA002B09DB039A7E
:10F62000904206D801D1644503DC684301232018C9
:10F6300001E001235B4234780136DDE7002B04DA78
:10F64000059922220A60012002E0019A002A00D0D6
:10F650004042002F04D0049A002B00D0721E3A6062
:10F6600007B0F0BD8428002038B5131C044A051CDF
:10F670000C1C1068291C221CFFF77AFF38BDC046FD
:10F6800080280020F8B5061C0C1C151C002904D18C
:10F69000111CFFF7CDFE041C18E0002A03D1FFF770
:10F6A0007FFE2C1C12E000F013F8A8420ED2301C92
:10F6B000291CFFF7BDFE071E07D0211C2A1CFFF7DF
:10F6C0005DFE301C211CFFF76BFE3C1C201CF8BDAE
:10F6D00004390B68181F002B02DAC8581B18181FB2
:10F6E00070470000002934D00123002210B4884262
:10F6F0002CD301242407A14204D2814202D2090161
:10F700001B01F8E7E400A14204D2814202D2490081
:10F710005B00F8E7884201D3401A1A434C08A04224
:10F7200002D3001B5C0822438C08A04202D3001BBA
:10F730009C082243CC08A04202D3001BDC082243D1
:10F74000002803D01B0901D00909E3E7101C10BCF5
:10F750007047002801D00020C04307B4024802A12E
:10F760004018029003BDC046D90000000029F0D027
:10F7700003B5FFF7B9FF0EBC4243891A1847C046CC
:10F78000002941D010B4041C4C40A446012300229F
:10F79000002900D54942002800D5404288422CD398
:10F7A00001242407A14204D2814202D209011B0193
:10F7B000F8E7E400A14204D2814202D249005B0092
:10F7C000F8E7884201D3401A1A434C08A04202D3FA
:10F7D000001B5C0822438C08A04202D3001B9C083B
:10F7E0002243CC08A04202D3001BDC08224300289D
:10F7F00003D01B0901D00909E3E7101C6446002C63
:10F8000000D5404210BC7047002806D003DB002022
:10F81000C043400801E08020000607B4024802A16E
:10F820004018029003BDC046190000000029EBD02B
:10F8300003B5FFF7A7FF0EBC4243891A1847C0461D
:10F840007047C046002B11D1002A0FD1002900D1EA
:10F85000002802D00021C943081C07B4024802A1B5
:10F860004018029003BDC046D9FFFFFF03B46846AD
:10F8700001B5029800F044F8019B9E4602B00CBC12
:10F880007047C0469C460304F0B51B0C17043F0CA0
:10F89000150C1E1C041C000C7E436B434743454360
:10F8A000FB18300C1818874202D980235B02ED1830
:10F8B000030CED1863465C434A433604360CA1182A
:10F8C000000480194919F0BDF0B583B0161C1F1C47
:10F8D0000090019100F0A6FB041C0D1C221C2B1CA7
:10F8E000301C391CFFF7CEFF009A019B121A8B4186
:10F8F0000899201C0A604B60291C03B0F0BDC0466B
:10F90000F0B583B0141C1D1C0090019100F066FD41
:10F91000221C2B1C061C0F1CFFF7B4FF009A019B36
:10F92000121A8B410899301C0A604B60391C03B0D5
:10F93000F0BDC046F0B5564644465F464D46F0B46D
:10F940001F1C0B031B0B9A464B0087B0041C804600
:10F950005B0DC80F161C02938146002B68D0694BC3
:10F960000299994232D08022534652031A43D20060
:10F97000630F1A439246644AE00089188046029158
:10F98000002400253B031B0B9B467800FB0F321C19
:10F99000400D039300D175E05A4B984269D0802204
:10F9A000594652030A43730FD2001A43564B9346EB
:10F9B000C018F200002303994E4671401C430F2CDF
:10F9C00000D9A9E0514EA4003459A74653461C4320
:10F9D00000D087E00025AA46A84608240225D1E7E2
:10F9E0004946022D6CD0032D00D117E2012D00D025
:10F9F00058E10D40EDB20024A9460023A0460020A6
:10FA0000002125030A0D1C052D0B1205404B2A432E
:10FA1000134023435B004C465B08E207191C404639
:10FA2000114307B03CBC90469946A246AB46F0BD98
:10FA30005346234350D05346002B00D184E1504617
:10FA400000F0D2FA031E272B00DD76E128210D1AE3
:10FA5000211C083B5246E9409A400D1C1543221CCC
:10FA60009A40AA4690462B4B00241B1A029300256D
:10FA700088E75B461E430323002E9CD1B346002239
:10FA8000022398E75B46334321D05846002800D133
:10FA90004EE100F0A9FA272800DD42E128210F1AE3
:10FAA000021C311C083A5B46F94093400F1C1F436F
:10FAB000331C9340BB461A1C164B181A00237AE7D6
:10FAC00001230B4000249946A0460E4B97E70027E0
:10FAD000BB46002201236EE7002104248A468846A3
:10FAE00001254FE70C2403254CE700258024A94677
:10FAF0002403A846034B82E7DA46904603991D1C6F
:10FB00006FE7C046FF07000001FCFFFFD8100200AE
:10FB1000FFFF0F800DFCFFFF029F160C38180490AA
:10FB20004046070C0004000C1204120C031C534343
:10FB3000041C3D1C7443554398463B1C7343641995
:10FB4000A44644460293230C63449D4204D9029D7B
:10FB5000802464022D1902951D0C039545462C0442
:10FB60001B04240C1C1905945C46230C051C5843EB
:10FB70002404240C8446381C604365435F4381465B
:10FB8000CC44280C6044BB46814502D980277F02C3
:10FB9000BB442D04070C2D0C000440195546BC46EF
:10FBA0002F04E3448446280C3D0C2F1C5743B846D1
:10FBB0002F1C77434243B94647463F0C9144BA460F
:10FBC000D14446434A4502D980225202B6184F46D4
:10FBD0003A0CB6183A0447463F043F0CB8462F1C6F
:10FBE00067435D434443584365190190380C2D1811
:10FBF0004244B846AC4204D9019880235B02C01845
:10FC00000190039C029F201C6044C0196045A441E0
:10FC100047466442A4462B043C049946240C4C44B9
:10FC2000A046D8448018C246E244904292415746CA
:10FC300052429146F219E245BF417F424B46BC46D3
:10FC4000D845BF41D4187F4263461F432D0C7F190E
:10FC5000B24292414C45AD4152426D421543019E24
:10FC60007D19AB19E20D5B02059F134342023A4333
:10FC70009A46531E9A41C30D101C18436402204338
:10FC800080465046C0010DD5454601225646049C8B
:10FC90006B082A401A43F30701341A437608049488
:10FCA0009046B246049E634FF319002B61DD404637
:10FCB00040070BD00F2244462240042A06D0424679
:10FCC0000432424580414042824490465546ED010F
:10FCD00007D5594B5646049F80201E40C000B246AF
:10FCE0003B18564A934200DDEAE644465546E20890
:10FCF0006807104301226C025B050A408046240B12
:10FD00005B0D91467BE6DA4690461D1C69E6802431
:10FD10002403574627421CD13C432403240B484B61
:10FD20006DE6031C283B311C99408B460022C3E63C
:10FD3000301C00F059F92030ADE6283B211C9940D9
:10FD400000228A4690468EE6201C00F04DF92030B5
:10FD500078E65846204207D1044303992403240B34
:10FD600089469046364B4AE63C432403240B344BE9
:10FD700045E6344B049E9B1B382B06DD01230B40CC
:10FD800000249946A046002339E61F2B25DC049C5D
:10FD90002D4D46466019524644468640DC4082401E
:10FDA0005746301C2243DF40441EA04102433B1C07
:10FDB000540709D00F201040042805D0101D904290
:10FDC000924152429B18021C1D021AD501230B407E
:10FDD00000249946A046012311E61C48049C554680
:10FDE000001BC540281C202B16D0194E5746A219BF
:10FDF00097403A1C43461A43531E9A41024300233C
:10FE0000D6E758075B02D2081C0B01230B401043B6
:10FE1000994680460023F2E50022EBE78024240384
:10FE200050460123044319402403240B8946044B04
:10FE3000E5E5C046FF030000FFFFFFFEFE070000F0
:10FE4000FF07000002FCFFFF1E040000E2FBFFFFB3
:10FE50003E040000F8B5041E31D0C70F00D0444264
:10FE6000201C00F0C1F8184D2D1A0A2819DD0B3896
:10FE7000844024036D05240B6D0D3A1C00260020E0
:10FE800000210B0D2403240B1B0523430F4C2D05D0
:10FE90001C402C4364006408D307211C301C194308
:10FEA000F8BD061C1536231CB3401E1C0B23181A64
:10FEB000C44024036D05240B6D0D3A1CDFE70022BE
:10FEC000002500240026DAE71E040000FFFF0F8053
:10FED000F0B54B000D03420F5B0D6D0A15435A1C24
:10FEE0005205CC0FC600520D012A27DD394FDA1911
:10FEF000FE2A1ADC002A35DD8001ED00431E984100
:10FF00002843760F3043430704D00F230340042BCC
:10FF100000D004308021C904014027D00132FF2ADB
:10FF20001DD083015B0AD1B201E0FF2100235802FA
:10FF3000C905400AE40708432043F0BD002B06D161
:10FF4000354311D10021002043025B0AEFE72E4325
:10FF5000EBD08020ED0080042843FF22D3E7FF216F
:10FF60000023E4E717320DDA05200022C008D1B2E1
:10FF7000FF2AE9D10028D9D08023DB0303435B02A9
:10FF80005B0AD4E78022144912041543C91A1F29B9
:10FF90000DDC124A371C9B18281C9F4098403B1CC4
:10FFA0005A1E93411843CE4030430022ABE70C4F1A
:10FFB0002A1CFF1AFA40171C202909D0094A981850
:10FFC0008540281C3043461EB041384300229AE742
:10FFD0000020F7E780FCFFFF9E03000082FCFFFF8C
:10FFE0007E030000A2FCFFFF1C2101231B0498429A
:10FFF00001D3000C10391B0A984201D3000A0839BA
:020000022000DC
:100000001B09984201D30009043902A2105C401870
:100010007047C04604030202010101010000000014
:1000200000000000F0B544465F4656464D46F0B429
:100030001C1C85B0002900DADBE00F1C0021061C27
:100040008A46101C191C002C00DAC9E001960090A9
:1000500089468046002951D1B84200D871E0FFF7A7
:10006000C3FF002809D020234546311C1B1A8540B8
:100070008740D940A8460F4386404246150C1304DA
:100080001B0C291C381C9B46FFF72CFB5B4643438B
:10009000041C291C381C9946FFF768FB330C080424
:1000A0001843814509D94044631E804500D978E151
:1000B000814500D875E1023C40444946411A8946D1
:1000C000081C291CFFF70EFB5A464243071C291C3B
:1000D00048469346FFF74AFB36040904360C0E43A4
:1000E000B34507D946447B1EB04502D8023FB3450D
:1000F00000D81F1C24042743002403E0B94211D96F
:10010000002400275246381C211C002A03D03B1C27
:1001100000215842A14105B03CBC90469946A246F8
:10012000AB46F0BD081CFFF75FFF041E00D0BFE028
:10013000B94500D242E1019D0099071C8D4247411B
:10014000E0E7002804D101200021FFF7CBFA804628
:100150004046FFF749FF002852D1414644460B0470
:100160003C1B1B0CA3460D0C00930124291C584674
:10017000FFF7B8FA009F81464743291C5846FFF70E
:10018000F5FA330C090419438F4208D94B46414410
:10019000013B884502D88F4200D91AE19946C91B14
:1001A0008B46081C291CFFF79DFA009B291C434322
:1001B000071C58460093FFF7D9FA3604009D09043E
:1001C000360C0E43B54207D946447B1EB04502D8D3
:1001D000023FB54200D81F1C49460E04374391E741
:1001E0005246D243031C0C1C924600215842A141A6
:1001F0002CE7002746428F41012149428A4620E7E9
:1002000020231B1A4246351C82403C1CDD40DC404A
:1002100087402B1C150C3B43291C8640201C009357
:1002200017049046FFF75EFA3F0C011C79438146A4
:100230008B46201C291CFFF799FA009C0904230C0B
:1002400019438B450CD94B464144013B884500D9A5
:10025000BDE08B4500D8BAE00222524291444144AD
:100260005C460C1B201C291C0194FFF73BFA391C2F
:100270004143041C8B460198291CFFF777FA009A2A
:10028000090413041B0C19438B4509D94144631E0F
:10029000884500D997E08B4500D894E0023C414462
:1002A0005B46CB1A49469B460B041C4300975DE70F
:1002B000009D20231B1A4A468240DD401543391C0D
:1002C000009AD94082408846311C0092D9403A1C9D
:1002D00082400B1C134301932F0C2B041B0C391C65
:1002E00040460293FFF7FEF9029A81464243391CC9
:1002F00040469346FFF73AFA019A0904130C194352
:100300008B450AD94B464919013B8D425DD88B4537
:100310005BD902235B42994449195A468A1A101C38
:10032000391C0392FFF7DEF9029B80464343391CD8
:1003300003989B46FFF71AFA019A090413041B0C51
:1003400019438B450AD943464919013B8D4238D898
:100350008B4536D902235B42984449195D464D1BB3
:10036000AB464946009D0F04424617432A04120C2F
:100370003B042D0C1B0C380C111C594342436B439E
:100380006843D3180D0C5B198C469A4202D980221F
:10039000520280181D0C401983450CD303D0002451
:1003A000B0E61C1C89E665462A041B04120C9B1847
:1003B000A6409E42F3D2013F0024A3E60024012779
:1003C000A0E69846CAE71C1C6AE79946A5E7994645
:1003D00046E70222524291444144E0E6F0B55F46CE
:1003E00056464D464446F0B40D1C85B0061C924658
:1003F00098460290019103921F1C141C8346A94643
:10040000002B59D1AA4269D9101CFFF7EDFD002835
:100410000AD020231B1A311CD94085400B1C2B43CA
:10042000864084409946B346250C23041B0C291CA6
:1004300048469846FFF756F94646071C4643291C8E
:100440004846FFF793F95A460904130C19438E42A4
:1004500009D909197B1E8C4200D957E18E4200D878
:1004600054E1023F0919891B8946081C291CFFF722
:1004700039F943464343061C291C48469846FFF772
:1004800075F95A46130409041B0C1943884508D909
:100490000919731E8C4200D936E1023E884500D806
:1004A00032E1380430430027391C05B03CBC90468B
:1004B0009946A246AB46F0BD019A934262D8181CF9
:1004C000FFF792FD041E60D1019B9F4200D22CE1F8
:1004D000029F03998F4260410027E5E7002A04D17B
:1004E00001200021FFF7FEF8041C201CFFF77CFD13
:1004F000002800D0B9E023042D1B1B0CA946260CB4
:1005000098460127311C4846FFF7ECF84146414325
:10051000051C8A464846311CFFF728F95A4608044C
:10052000130C1843824507D900196B1E844202D868
:10053000824500D910E11D1C5346C31A181C311CFA
:100540009A46FFF7CFF841464143814688465046D8
:10055000311CFFF70BF95A46130409041B0C19430D
:1005600088450BD94B460919013B8C4200D9CFE095
:10057000884500D8CCE002235B42994428044946D0
:10058000084391E7002700208EE720231B1A4246EC
:1005900057468240DF401743524682400192321C48
:1005A000DA40291CD9408540131C2B4302933D0C93
:1005B0003B041B0C8846081C291C9A46FFF792F83E
:1005C000534643438146291C40469B46FFF7CEF8DD
:1005D000029A0904130C19438B4506D94B46C919D5
:1005E000013B8F4200D8ABE099465A468A1A101C4C
:1005F000291C9346FFF776F853464343291C80464F
:1006000058469A46FFF7B2F8029A090415042D0CD1
:1006100029438A4506D94346C919013B8F4200D870
:1006200086E098465746CF1BBA464946019F0804C4
:10063000424610433D042D0C03043F0C1B0C020CDE
:10064000291C594355437B437A43EB180F0CDB19A4
:100650008C469D4202D980277F02D2191D0C521967
:1006600092455FD356D000271EE720231B1A311C6A
:100670002F1CD940DF4085400B1C84402B43864013
:100680000193B3462304260C1B0C381C311C9846DE
:10069000FFF728F842464243051C311C381C91469E
:1006A000FFF764F8019F09043B0C1943894507D9FA
:1006B00009196B1E8C424DD889454BD9023D091949
:1006C0004A468A1A101C311C9246FFF70BF8434623
:1006D0004343071C311C50469946FFF747F8019ADF
:1006E000090413041B0C1943894507D909197B1EFA
:1006F0008C422DD889452BD9023F09194B46CB1A7C
:100700002D0499462F43FDE61E1CCAE61F1CAAE6CF
:10071000994633E761460A041B04120C9B18A64055
:100720009E42A0D201380027BEE600270120BBE68A
:100730008A4500D875E702235B429844C91971E7DE
:100740008B4500D850E702235B429944C9194CE716
:100750001F1CD3E71D1CB3E7023D0019ECE6C046A1
:10076000F8B5C046F8BC08BC9E467047F8B5C04610
:10077000F8BC08BC9E467047000000000000000066
:10078000C1C10100D5C101006DC5010071C50100E5
:1007900075C501007DC501002DC70100EFC5010031
:1007A000A5C5010083C50100000000000000000095
:1007B000E9C10100FDC101006DC5010071C5010065
:1007C00075C501007DC501002DC70100EFC5010001
:1007D000A5C5010083C5010043686172616374654A
:1007E000726973746963206576656E742C20737505
:1007F0006273637269626564004368617261637405
:1008000065726973746963206576656E742C2075F2
:100810006E7375627363726962656400436F6E6EB6
:100820006563746564206576656E742C2063656EFF
:100830007472616C3A2000446973636F6E6E656315
:10084000746564206576656E742C2063656E7472C1
:10085000616C3A200053656E736F7200424C452004
:1008600053656E736F72205065726970686572614E
:100870006C0053656E736F722076616C75653A20FB
:1008800000737472696E6754687265653A2000532C
:10089000656E736F7220313A200053656E736F720C
:1008A00020323A20003D3D3D3D3D3D3D3D3D3D3DFD
:1008B0003D3D3D3D3D3D3D3D3D3D3D3D3D3D3D3D68
:1008C0003D3D3D3D3D3D3D3D3D3D3D3D3D3D3D3D58
:1008D0003D3D3D3D3D3D3D3D3D3D3D3D3D3D3D3D48
:1008E0003D3D3D3D3D3D3D3D3D3D3D3D3D3D3D3D38
:1008F0003D3D3D3D3D3D0033333333326135382D91
:10090000303030302D313030302D383030302D30E7
:10091000303830356639623334666200333333330E
:10092000326135382D303030302D313030302D3887
:100930003030302D303038303566396233346663CC
:1009400000000000000000000000000000000000A7
:10095000C1C50100DDC501006DC5010071C5010003
:1009600075C501007DC5010079C50100EFC5010015
:10097000A5C5010083C501000000000000000000C3
:10098000E5C60100F1C60100A1C60100A3C6010031
:10099000A5C60100A7C60100ABC60100ADC6010097
:1009A000AFC60100B3C60100B7C60100BBC6010057
:1009B000BFC60100C3C60100C7C60100CBC6010007
:1009C000CFC60100D3C60100D7C60100DBC60100B7
:1009D000DFC60100E1C60100E3C60100000000001F
:1009E000000000000000000099C10100ADC101003D
:1009F0006DC5010071C5010075C501007DC501000F
:100A00002DC70100EFC50100A5C5010083C5010088
:100A100031383030003261303000326130310031F5
:100A200038303100326130350041726475696E6F63
:100A300000000000000000000000000000000000B6
:100A400009C9010029C90100C1C80100D5C80100B8
:100A5000E9C8010047C9010059C9010003C90100E3
:100A600005C9010007C9010041CC0100A9CC010062
:100A700071C701008DC70100A9C70100C5C70100EA
:100A8000E1C70100FDC7010019C8010035C8010018
:100A900051C801006DC8010089C80100A5C8010046
:100AA000FCFFFFFF000000007DC7010099C70100A7
:100AB000B5C70100D1C70100F8FFFFFF000000002B
:100AC000EDC7010009C8010025C8010041C80100A7
:100AD0005DC8010079C8010095C80100B1C80100D6
:100AE0000000000000000000E9CD0100F5CD01008C
:100AF0003A000000000000000000000000000000BC
:100B000075D9010091D90100C5D901007FD4010038
:100B10003DD901009FD201006BD30100FBD201003F
:100B2000C9E00100A3D3010027D0010033D00100A8
:100B30003FD001007BD00100C3D001000FD10100E4
:100B400087D10100BFD101002FD2010039D20100AD
:100B500007D3010029D3010069D301000000000080
:100B600032393031003239303400323930320032EB
:100B7000393033006E72665F70696E20213D202827
:100B800050696E4E616D65294E43002F5573657235
:100B9000732F64666C6F7269732F4C696272617235
:100BA000792F41726475696E6F31352F7061636B97
:100BB000616765732F526564426561722F68617267
:100BC00064776172652F6E524635313832322F317B
:100BD0002E302E382F636F7265732F52424C5F6E2A
:100BE000524635313832322F776972696E675F61EC
:100BF0006E616C6F672E637070002F557365727332
:100C00002F64666C6F7269732F4C696272617279BE
:100C10002F41726475696E6F31352F7061636B613E
:100C20006765732F526564426561722F68617264F3
:100C3000776172652F6E524635313832322F312E40
:100C4000302E382F636F7265732F52424C5F6E5295
:100C50004635313832322F776972696E675F646961
:100C6000676974616C2E6370700000000000000002
:100C700000000000000000002DE8010019E3010061
:100C8000C9E70100E5E701000DE8010041E80100C6
:100C9000C5E70100000000006D62656420617373A8
:100CA0006572746174696F6E206661696C65643A1F
:100CB0002025732C2066696C653A2025732C206CE6
:100CC000696E65202564200A006F626A2D3E706996
:100CD0006E20213D202850696E4E616D65294E437E
:100CE000002F55736572732F64666C6F7269732F72
:100CF0004C6962726172792F41726475696E6F31ED
:100D0000352F7061636B616765732F52656442654F
:100D100061722F68617264776172652F6E52463519
:100D2000313832322F312E302E382F636F72657387
:100D30002F52424C5F6E524635313832322F6D623F
:100D400065642F746172676574732F68616C2F54CA
:100D500041524745545F4E4F524449432F544152EC
:100D60004745545F4D43555F4E5246353138323218
:100D70002F6770696F5F6F626A6563742E68002FFA
:100D800055736572732F64666C6F7269732F4C694B
:100D900062726172792F41726475696E6F31352F9D
:100DA0007061636B616765732F5265644265617240
:100DB0002F68617264776172652F6E5246353138E3
:100DC00032322F312E302E382F636F7265732F52CF
:100DD000424C5F6E524635313832322F6D62656457
:100DE0002F746172676574732F68616C2F54415260
:100DF0004745545F4E4F524449432F544152474553
:100E0000545F4D43555F4E524635313832322F676D
:100E100070696F5F6170692E63002F55736572731F
:100E20002F64666C6F7269732F4C6962726172799C
:100E30002F41726475696E6F31352F7061636B611C
:100E40006765732F526564426561722F68617264D1
:100E5000776172652F6E524635313832322F312E1E
:100E6000302E382F636F7265732F52424C5F6E5273
:100E70004635313832322F6D6265642F7461726786
:100E80006574732F68616C2F5441524745545F4E0F
:100E90004F524449432F5441524745545F4D4355A7
:100EA0005F4E524635313832322F70696E6D617047
:100EB0002E630000B004000000F004006009000090
:100EC00000D00900C012000000B01300802500000F
:100ED000005027004038000000003B00004B00009D
:100EE00000A04E008070000000F07500127A000033
:100EF000000080000096000000509D00C0DA000055
:100F00000010E50000E1000000F0EB00002C010003
:100F100000903A0100C2010000E0D7010084030004
:100F200000B0AF0390D003000000000400080700E9
:100F300000705F0700100E0000D0BE0E40420F0090
:100F4000000000100B090A081C1D0F070102030412
:100F50000513060075F00100D1F00100D9F1010080
:100F600001F2010009F10100540F0200102B0020D2
:100F70000000000000000000000000000000000071
:100F80000000000000000000000000000000000061
:100F90000000000000000000000000000000000051
:100FA0000000000000000000000000000000000041
:100FB0000000000000000000000000000000000031
:100FC0000000000000000000000000000000000021
:100FD0002028002000202020202020202020282839
:100FE00028282820202020202020202020202020E9
:100FF0002020202020881010101010101010101029
:101000001010101010040404040404040404041058
:1010100010101010101041414141414101010101E6
:1010200001010101010101010101010101010101B0
:1010300010101010101042424242424202020202BC
:101040000202020202020202020202020202020280
:101050001010101020000000000000000000000030
:101060000000000000000000000000000000000080
:101070000000000000000000000000000000000070
:101080000000000000000000000000000000000060
:101090000000000000000000000000000000000050
:1010A0000000000000000000000000000000000040
:1010B0000000000000000000000000000000000030
:1010C0000000000000000000000000000000000020
:1010D000000000000000000018FB010006FD0100F8
:1010E00006FD0100F8FA0100E2F90100E2F9010051
:1010F000EAFA0100F8FA0100E2F90100EAFA010057
:10110000E2F90100F8FA0100E0F90100E0F901005C
:0C111000E0F901000EFD010000000000ED
:08111C0004B0FF7F0100000098
:1011240000000000E8030000030000000A000000C3
:1011340002000000282B0020881301000100010098
:1011440000000000700F0200900F0200B00F0200B8
:10115400000000000000000000000000000000008B
:10116400DF0C02000000000000000000000000008E
:10117400000000000000000000000000000000006B
:10118400000000000000000000000000000000005B
:10119400000000000000000000000000000000004B
:1011A40020280020D40F0200E9C0010041C401003E
:0811B400E9E80100C1C00100DF
:040000031000E1DD2B
:00000001FF
